:040000000200B83210
:03000B0002023EB0
:0100130032BA
:01001B0032B2
:0100230032AA
:01002B0032A2
:01003300329A
:01003B003292
:030043000202A90D
:100048000000E2FBEAF2802C0000E0FBEAF08024EA
:10005800E6B50202EBF62200E2B50202EBF222005C
:10006800E0B50202EBF02230F6E0A88220F5D3EAF0
:10007800C6F582228B822230F6E6A88220F5D98046
:01008800CFA8
:030127000200894A
:0500890012012A80FEB7
:10012A0012013D9000051201661202131206B5D2A1
:10013A00AF80FE75A15575A1AA74F855B94406F5A4
:10014A00B975A10022AE82AF83EE4F600E000000A7
:10015A00000000001EBEFF011F80EE22AE82AF83A8
:10016A00EE4F60159003E8C007C00612014FD00693
:0A017A00D0071EBEFF011F80E72220
:10077B000600FF0901A1010902150026FF007508FB
:10078B0095019102C01201100100000008091252DC
:10079B00C500100102000109022200010100803294
:1007AB0009040000010300000009211101000122CE
:1007BB0015000705810308000A040309040E036DE5
:1007CB000069007400740069006600100352004752
:1007DB000042002D004C00450044001222040E1074
:0107EB0015F8
:10011100752200752300752400752500752600756C
:060121002700C200D2011C
:10018400AF827401B52F12EF70045390EF22BF01B8
:10019400045390DF225390BF22E52F7011EF7004B7
:1001A40043901022BF01044390202243904022AF89
:1001B400828F06530603EF0303543FFD530503EFF9
:1001C400C4540FFF530703EE24FD50027E00ED24B8
:1001D400FD50027D00EF24FD50027F00EFC454F077
:1001E400FCED2D25E04C4EF5228E238E2F758200DA
:1001F400C007C005120184D0058D248D2F7582019E
:10020400120184D0078F258F2F7582020201845337
:1002140092EF4393105392DF4393205392BF43933F
:10022400407582001201B3E58954F04402F58975E2
:100234008CDB758ADBD28CD2A922C0E0C0D075D009
:1002440010E52604FF8F26701E30010F74FFB527BA
:1002540006C201152780100527800CE5277006D2F9
:10026400010527800215277402B5230EC3EF9527D5
:1002740050055390EF80034390107402B5240EC3CD
:10028400EF952750055390DF80034390207402B507
:10029400250EC3EF952750055390BF80034390402C
:1002A400D0D0D0E032C021C0E0C0F0C082C083C052
:1002B40007C006C005C004C003C002C001C000C01E
:1002C400D075D00820D90302067A743F55D9FFFEB1
:1002D400700302064BBF20030205D0BF2102800831
:1002E400BF3002801102067663D24074FC55D244BA
:1002F40002F5D202067675DCC0AEDB7F00BE0805CF
:10030400BF000280030205B3900007E0FC7D00906B
:100314000006E07A004DF52AEA4CF52B7E007F00BA
:10032400900001E0F528900000E0F529AC29746004
:100334005CFB6009BB20030205370205AFE52824F6
:10034400F55003020532E528240B83F582E52824C1
:100354000F83F583E4730BCC323232947032A1C034
:10036400EF0504050505040305040404900003E0F7
:10037400FBBB01028019BB02028028BB030280364A
:10038400BB2103020408BB220302041702042A75DA
:100394002C90752D07752E809007E6E493FE7F0060
:1003A40002042C752CA2752D07752E809007E7E4A6
:1003B40093FE7F008072900002E0FB600ABB0102A2
:1003C4008018BB023B8026752CC4752D07752E80C2
:1003D4009007E8E493FE7F00804E752CC8752D07C6
:1003E400752E809007E9E493FE7F00803B752CD640
:1003F400752D07752E809007EAE493FE7F00802810
:100404007DFF8024752CB4752D07752E807E097FA1
:10041400008015752C7B752D07752E809007EBE4F5
:1004240093FE7F0080027DFFC3EE952AEF952B504B
:10043400048E2A8F2BAA2AAB2BC3EA9408EB9400D0
:1004440040067A087B008004AA2AAB2B8A0E8B0F05
:10045400852C2F852D30852E318E328F33900000E0
:1004640075F000C00FC00EC00D75D0001206EB75FC
:10047400D008D00DD00ED00FE52AC39EF52AE52B67
:100484009FF52BEE252CF52CEF352DF52D0205B51A
:10049400900002E0FB8B2A752B000205B5A200E454
:1004A40033900000F0AA2AAB2BC3EA9401EB94002A
:1004B40050030205B57E017F000205B5900002E0FD
:1004C400FB24FF92000205B5530C1FBC02189000D8
:1004D40004E0FCBC810B74BC55D24402F5D2020585
:1004E400B57DFF0205B57DFF0205B5900000E4F07F
:1004F400AB2AAC2BC3EB9401EC940050030205B57A
:100504007E017F000205B5900000E4F0900001F048
:10051400AB2AAC2BC3EB9402EC940040067B027C28
:10052400008004AB2AAC2B8B0E8C0F0205B57DFF2B
:100534000205B57401B5280280287402B52802802A
:10054400447409B52802800E740AB52802800D741B
:100554000BB5285380067E007F0080557E007F0007
:10056400804F900000E522F0AB2AAC2BC3EB940142
:10057400EC940040067B017C008004AB2AAC2B8BFE
:100584000E8C0F802C900000E4F0AB2AAC2BC3EB54
:100594009401EC940040067B017C008004AB2AACFF
:1005A4002B8B0E8C0F800A7DFF80067DFF80027DE1
:1005B400FFBDFF0675DCCF020676C374089EE49F78
:1005C40050027E008EDD75DCC00206767405B52807
:1005D40002805C7406B52867AE2AAF2BC3EE94087C
:1005E400EF940040067E087F008004AE2AAF2B857E
:1005F4002C2F852D30852E318E328F33900000754F
:10060400F000C00FC00E75D0001206EB75D008D0F4
:100614000ED00FE52AC39EF52AE52B9FF52BEE2578
:100624002CF52CEF352DF52D8EDD63DC408043E574
:10063400E35480FFE52AFE4FF5E375DC0280337551
:10064400DD0075DC02802B30DE22AF29530F60BF42
:10065400201A7409B5281574FF25DB500F9000008B
:10066400E0F58275D0001201B375D00875DD007510
:10067400DCC0C2D9801C30D81375DC0275D202C22A
:100684000075E300C2DAC2D9C2D8800610DA037555
:10069400D8FFD0D0D000D001D002D003D004D005F0
:1006A400D006D007D083D082D0F0D0E0D021020091
:1006B4008E7E007F007C407D00C2EA75E20075EA10
:1006C4004075EB008EEC8FED8CEE8DEF75DC0275D2
:1006D400D20275E30075D18075E22943D10175D842
:0706E400FF75E107D2EA22D5
:0600E700E478FFF6D8FDED
:1006EB00AD82AE83AFF08D348E358F36852F378547
:1006FB003038853139A832A9338803890418B8FFFB
:10070B000119EB4C60258537828538838539F012CA
:10071B00075BFCA38582378583388D828E838FF0B0
:10072B00EC120740A3AD82AE8380CE853482853533
:05073B00838536F02269
:1000C5007900E94400601B7A009007EC78C075A0C0
:1000D50000E493F2A308B8000205A0D9F4DAF2759A
:0200E500A0FF7A
:10008E00C000A88118C0D0B6001B18B64800401595
:10009E00B66F005010C0E0E65407B406005004E6F8
:0A00AE0054F8F6D0E0D0D0D00032B4
:1007400020F71130F6138883A88220F509F6A883D4
:0B0750007583002280FEF280F5F0228D
:1000ED007800E84400600A79C075A000E4F309D8EF
:1000FD00FC7800E84400600C79009000C0E4F0A3A7
:04010D00D8FCD9FA47
:0D00B800758139120777E582600302008927
:10075B0020F71430F6148883A88220F507E6A883C7
:10076B0075830022E280F7E49322E0227582002257
:00000001FF
